{
  "contractName": "MicroPayments",
  "abi": [
    {
      "inputs": [],
      "stateMutability": "nonpayable",
      "type": "constructor"
    },
    {
      "anonymous": false,
      "inputs": [
        {
          "indexed": true,
          "internalType": "address",
          "name": "_from",
          "type": "address"
        },
        {
          "indexed": true,
          "internalType": "address",
          "name": "_to",
          "type": "address"
        },
        {
          "indexed": false,
          "internalType": "uint256",
          "name": "_amount",
          "type": "uint256"
        }
      ],
      "name": "PaymentSent",
      "type": "event"
    },
    {
      "inputs": [
        {
          "internalType": "address",
          "name": "",
          "type": "address"
        }
      ],
      "name": "balances",
      "outputs": [
        {
          "internalType": "uint256",
          "name": "",
          "type": "uint256"
        }
      ],
      "stateMutability": "view",
      "type": "function"
    },
    {
      "inputs": [],
      "name": "owner",
      "outputs": [
        {
          "internalType": "address",
          "name": "",
          "type": "address"
        }
      ],
      "stateMutability": "view",
      "type": "function"
    },
    {
      "inputs": [],
      "name": "deposit",
      "outputs": [],
      "stateMutability": "payable",
      "type": "function"
    },
    {
      "inputs": [
        {
          "internalType": "address payable",
          "name": "_recipient",
          "type": "address"
        },
        {
          "internalType": "uint256",
          "name": "_amount",
          "type": "uint256"
        }
      ],
      "name": "sendPayment",
      "outputs": [],
      "stateMutability": "nonpayable",
      "type": "function"
    },
    {
      "inputs": [],
      "name": "withdraw",
      "outputs": [],
      "stateMutability": "nonpayable",
      "type": "function"
    },
    {
      "inputs": [],
      "name": "getContractBalance",
      "outputs": [
        {
          "internalType": "uint256",
          "name": "",
          "type": "uint256"
        }
      ],
      "stateMutability": "view",
      "type": "function"
    }
  ],
  "bytecode": "0x608060405234801561000f575f80fd5b50335f806101000a81548173ffffffffffffffffffffffffffffffffffffffff021916908373ffffffffffffffffffffffffffffffffffffffff1602179055506108f88061005c5f395ff3fe608060405260043610610054575f3560e01c806327e235e3146100585780633ccfd60b146100945780636f9fb98a146100aa5780638da5cb5b146100d4578063935f4c18146100fe578063d0e30db014610126575b5f80fd5b348015610063575f80fd5b5061007e60048036038101906100799190610532565b610130565b60405161008b9190610575565b60405180910390f35b34801561009f575f80fd5b506100a8610145565b005b3480156100b5575f80fd5b506100be610251565b6040516100cb9190610575565b60405180910390f35b3480156100df575f80fd5b506100e8610258565b6040516100f5919061059d565b60405180910390f35b348015610109575f80fd5b50610124600480360381019061011f919061061b565b61027b565b005b61012e61043d565b005b6001602052805f5260405f205f915090505481565b5f60015f3373ffffffffffffffffffffffffffffffffffffffff1673ffffffffffffffffffffffffffffffffffffffff1681526020019081526020015f205490505f81116101c8576040517f08c379a00000000000000000000000000000000000000000000000000000000081526004016101bf906106b3565b60405180910390fd5b5f60015f3373ffffffffffffffffffffffffffffffffffffffff1673ffffffffffffffffffffffffffffffffffffffff1681526020019081526020015f20819055503373ffffffffffffffffffffffffffffffffffffffff166108fc8290811502906040515f60405180830381858888f1935050505015801561024d573d5f803e3d5ffd5b5050565b5f47905090565b5f8054906101000a900473ffffffffffffffffffffffffffffffffffffffff1681565b8060015f3373ffffffffffffffffffffffffffffffffffffffff1673ffffffffffffffffffffffffffffffffffffffff1681526020019081526020015f205410156102fb576040517f08c379a00000000000000000000000000000000000000000000000000000000081526004016102f29061071b565b60405180910390fd5b5f811161033d576040517f08c379a0000000000000000000000000000000000000000000000000000000008152600401610334906107a9565b60405180910390fd5b8060015f3373ffffffffffffffffffffffffffffffffffffffff1673ffffffffffffffffffffffffffffffffffffffff1681526020019081526020015f205f82825461038991906107f4565b925050819055508173ffffffffffffffffffffffffffffffffffffffff166108fc8290811502906040515f60405180830381858888f193505050501580156103d3573d5f803e3d5ffd5b508173ffffffffffffffffffffffffffffffffffffffff163373ffffffffffffffffffffffffffffffffffffffff167fd52bd61f7c422d441e024604f4517878fd3305d6acf0fe37baef23ed21af6bc9836040516104319190610575565b60405180910390a35050565b5f341161047f576040517f08c379a000000000000000000000000000000000000000000000000000000000815260040161047690610871565b60405180910390fd5b3460015f3373ffffffffffffffffffffffffffffffffffffffff1673ffffffffffffffffffffffffffffffffffffffff1681526020019081526020015f205f8282546104cb919061088f565b92505081905550565b5f80fd5b5f73ffffffffffffffffffffffffffffffffffffffff82169050919050565b5f610501826104d8565b9050919050565b610511816104f7565b811461051b575f80fd5b50565b5f8135905061052c81610508565b92915050565b5f60208284031215610547576105466104d4565b5b5f6105548482850161051e565b91505092915050565b5f819050919050565b61056f8161055d565b82525050565b5f6020820190506105885f830184610566565b92915050565b610597816104f7565b82525050565b5f6020820190506105b05f83018461058e565b92915050565b5f6105c0826104d8565b9050919050565b6105d0816105b6565b81146105da575f80fd5b50565b5f813590506105eb816105c7565b92915050565b6105fa8161055d565b8114610604575f80fd5b50565b5f81359050610615816105f1565b92915050565b5f8060408385031215610631576106306104d4565b5b5f61063e858286016105dd565b925050602061064f85828601610607565b9150509250929050565b5f82825260208201905092915050565b7f4e6f2066756e647320746f2077697468647261770000000000000000000000005f82015250565b5f61069d601483610659565b91506106a882610669565b602082019050919050565b5f6020820190508181035f8301526106ca81610691565b9050919050565b7f496e73756666696369656e742062616c616e63650000000000000000000000005f82015250565b5f610705601483610659565b9150610710826106d1565b602082019050919050565b5f6020820190508181035f830152610732816106f9565b9050919050565b7f416d6f756e742073686f756c642062652067726561746572207468616e207a655f8201527f726f000000000000000000000000000000000000000000000000000000000000602082015250565b5f610793602283610659565b915061079e82610739565b604082019050919050565b5f6020820190508181035f8301526107c081610787565b9050919050565b7f4e487b71000000000000000000000000000000000000000000000000000000005f52601160045260245ffd5b5f6107fe8261055d565b91506108098361055d565b9250828203905081811115610821576108206107c7565b5b92915050565b7f4d7573742073656e6420736f6d652045746865720000000000000000000000005f82015250565b5f61085b601483610659565b915061086682610827565b602082019050919050565b5f6020820190508181035f8301526108888161084f565b9050919050565b5f6108998261055d565b91506108a48361055d565b92508282019050808211156108bc576108bb6107c7565b5b9291505056fea2646970667358221220f9dbfdea62fb152d926e251556f22152ad7511b5137414f93b6bc39bca6793b664736f6c63430008150033",
  "immutableReferences": {},
  "source": "// SPDX-License-Identifier: MIT\r\npragma solidity 0.8.21;\r\n\r\ncontract MicroPayments {\r\n    address public owner;\r\n    mapping(address => uint256) public balances;\r\n\r\n    event PaymentSent(address indexed _from, address indexed _to, uint256 _amount);\r\n\r\n    constructor() {\r\n        owner = msg.sender;\r\n    }\r\n\r\n    function deposit() public payable {\r\n        require(msg.value > 0, \"Must send some Ether\");\r\n        balances[msg.sender] += msg.value;\r\n    }\r\n\r\n    function sendPayment(address payable _recipient, uint256 _amount) public {\r\n        require(balances[msg.sender] >= _amount, \"Insufficient balance\");\r\n        require(_amount > 0, \"Amount should be greater than zero\");\r\n\r\n        balances[msg.sender] -= _amount;\r\n        _recipient.transfer(_amount);\r\n\r\n        emit PaymentSent(msg.sender, _recipient, _amount);\r\n    }\r\n\r\n    function withdraw() public {\r\n        uint256 balance = balances[msg.sender];\r\n        require(balance > 0, \"No funds to withdraw\");\r\n\r\n        balances[msg.sender] = 0;\r\n        payable(msg.sender).transfer(balance);\r\n    }\r\n\r\n    function getContractBalance() public view returns (uint256) {\r\n        return address(this).balance;\r\n    }\r\n}",
  "sourcePath": "C:\\Users\\manuk\\Desktop\\project_work\\contracts\\micro.sol",
  "compiler": {
    "name": "solc",
    "version": "0.8.21+commit.d9974bed.Emscripten.clang"
  },
  "schemaVersion": "3.4.16",
  "updatedAt": "2024-09-23T07:10:45.936Z",
  "devdoc": {
    "kind": "dev",
    "methods": {},
    "version": 1
  },
  "userdoc": {
    "kind": "user",
    "methods": {},
    "version": 1
  }
}